{
  "contractName": "NGL",
  "abi": [
    {
      "inputs": [
        {
          "internalType": "uint256",
          "name": "initialSupply",
          "type": "uint256"
        },
        {
          "internalType": "contract NGLADDRESSLOCK",
          "name": "_nglLock",
          "type": "address"
        }
      ],
      "stateMutability": "nonpayable",
      "type": "constructor"
    },
    {
      "anonymous": false,
      "inputs": [
        {
          "indexed": true,
          "internalType": "address",
          "name": "owner",
          "type": "address"
        },
        {
          "indexed": true,
          "internalType": "address",
          "name": "spender",
          "type": "address"
        },
        {
          "indexed": false,
          "internalType": "uint256",
          "name": "value",
          "type": "uint256"
        }
      ],
      "name": "Approval",
      "type": "event"
    },
    {
      "anonymous": false,
      "inputs": [
        {
          "indexed": true,
          "internalType": "address",
          "name": "previousOwner",
          "type": "address"
        },
        {
          "indexed": true,
          "internalType": "address",
          "name": "newOwner",
          "type": "address"
        }
      ],
      "name": "OwnershipTransferred",
      "type": "event"
    },
    {
      "anonymous": false,
      "inputs": [
        {
          "indexed": true,
          "internalType": "address",
          "name": "from",
          "type": "address"
        },
        {
          "indexed": true,
          "internalType": "address",
          "name": "to",
          "type": "address"
        },
        {
          "indexed": false,
          "internalType": "uint256",
          "name": "value",
          "type": "uint256"
        }
      ],
      "name": "Transfer",
      "type": "event"
    },
    {
      "inputs": [
        {
          "internalType": "address",
          "name": "owner",
          "type": "address"
        },
        {
          "internalType": "address",
          "name": "spender",
          "type": "address"
        }
      ],
      "name": "allowance",
      "outputs": [
        {
          "internalType": "uint256",
          "name": "",
          "type": "uint256"
        }
      ],
      "stateMutability": "view",
      "type": "function",
      "constant": true
    },
    {
      "inputs": [
        {
          "internalType": "address",
          "name": "spender",
          "type": "address"
        },
        {
          "internalType": "uint256",
          "name": "amount",
          "type": "uint256"
        }
      ],
      "name": "approve",
      "outputs": [
        {
          "internalType": "bool",
          "name": "",
          "type": "bool"
        }
      ],
      "stateMutability": "nonpayable",
      "type": "function"
    },
    {
      "inputs": [
        {
          "internalType": "address",
          "name": "account",
          "type": "address"
        }
      ],
      "name": "balanceOf",
      "outputs": [
        {
          "internalType": "uint256",
          "name": "",
          "type": "uint256"
        }
      ],
      "stateMutability": "view",
      "type": "function",
      "constant": true
    },
    {
      "inputs": [
        {
          "internalType": "address",
          "name": "spender",
          "type": "address"
        },
        {
          "internalType": "uint256",
          "name": "subtractedValue",
          "type": "uint256"
        }
      ],
      "name": "decreaseAllowance",
      "outputs": [
        {
          "internalType": "bool",
          "name": "",
          "type": "bool"
        }
      ],
      "stateMutability": "nonpayable",
      "type": "function"
    },
    {
      "inputs": [
        {
          "internalType": "address",
          "name": "spender",
          "type": "address"
        },
        {
          "internalType": "uint256",
          "name": "addedValue",
          "type": "uint256"
        }
      ],
      "name": "increaseAllowance",
      "outputs": [
        {
          "internalType": "bool",
          "name": "",
          "type": "bool"
        }
      ],
      "stateMutability": "nonpayable",
      "type": "function"
    },
    {
      "inputs": [],
      "name": "name",
      "outputs": [
        {
          "internalType": "string",
          "name": "",
          "type": "string"
        }
      ],
      "stateMutability": "view",
      "type": "function",
      "constant": true
    },
    {
      "inputs": [],
      "name": "owner",
      "outputs": [
        {
          "internalType": "address",
          "name": "",
          "type": "address"
        }
      ],
      "stateMutability": "view",
      "type": "function",
      "constant": true
    },
    {
      "inputs": [],
      "name": "renounceOwnership",
      "outputs": [],
      "stateMutability": "nonpayable",
      "type": "function"
    },
    {
      "inputs": [],
      "name": "symbol",
      "outputs": [
        {
          "internalType": "string",
          "name": "",
          "type": "string"
        }
      ],
      "stateMutability": "view",
      "type": "function",
      "constant": true
    },
    {
      "inputs": [],
      "name": "tokenTradesStart",
      "outputs": [
        {
          "internalType": "uint256",
          "name": "",
          "type": "uint256"
        }
      ],
      "stateMutability": "view",
      "type": "function",
      "constant": true
    },
    {
      "inputs": [],
      "name": "totalSupply",
      "outputs": [
        {
          "internalType": "uint256",
          "name": "",
          "type": "uint256"
        }
      ],
      "stateMutability": "view",
      "type": "function",
      "constant": true
    },
    {
      "inputs": [
        {
          "internalType": "address",
          "name": "newOwner",
          "type": "address"
        }
      ],
      "name": "transferOwnership",
      "outputs": [],
      "stateMutability": "nonpayable",
      "type": "function"
    },
    {
      "inputs": [],
      "name": "decimals",
      "outputs": [
        {
          "internalType": "uint8",
          "name": "",
          "type": "uint8"
        }
      ],
      "stateMutability": "view",
      "type": "function",
      "constant": true
    },
    {
      "inputs": [
        {
          "internalType": "address",
          "name": "from",
          "type": "address"
        },
        {
          "internalType": "address",
          "name": "to",
          "type": "address"
        },
        {
          "internalType": "uint256",
          "name": "amount",
          "type": "uint256"
        }
      ],
      "name": "transferFrom",
      "outputs": [
        {
          "internalType": "bool",
          "name": "",
          "type": "bool"
        }
      ],
      "stateMutability": "nonpayable",
      "type": "function"
    },
    {
      "inputs": [
        {
          "internalType": "address",
          "name": "to",
          "type": "address"
        },
        {
          "internalType": "uint256",
          "name": "amount",
          "type": "uint256"
        }
      ],
      "name": "transfer",
      "outputs": [
        {
          "internalType": "bool",
          "name": "",
          "type": "bool"
        }
      ],
      "stateMutability": "nonpayable",
      "type": "function"
    },
    {
      "inputs": [
        {
          "internalType": "uint256",
          "name": "timestamp",
          "type": "uint256"
        }
      ],
      "name": "setTradesStart",
      "outputs": [],
      "stateMutability": "nonpayable",
      "type": "function"
    },
    {
      "inputs": [
        {
          "internalType": "address",
          "name": "addr",
          "type": "address"
        }
      ],
      "name": "validateTransfer",
      "outputs": [],
      "stateMutability": "view",
      "type": "function",
      "constant": true
    }
  ],
  "bytecode": "0x608060405262093a8042620000159190620003e1565b6007553480156200002557600080fd5b506040516200212a3803806200212a83398181016040528101906200004b9190620004cb565b6040518060400160405280600d81526020017f4e616465204c6f772042616e64000000000000000000000000000000000000008152506040518060400160405280600481526020017f4e4c4278000000000000000000000000000000000000000000000000000000008152508160039081620000c8919062000782565b508060049081620000da919062000782565b505050620000fd620000f16200015860201b60201c565b6200016060201b60201c565b6200010f33836200022660201b60201c565b80600660006101000a81548173ffffffffffffffffffffffffffffffffffffffff021916908373ffffffffffffffffffffffffffffffffffffffff16021790555050506200091a565b600033905090565b6000600560009054906101000a900473ffffffffffffffffffffffffffffffffffffffff16905081600560006101000a81548173ffffffffffffffffffffffffffffffffffffffff021916908373ffffffffffffffffffffffffffffffffffffffff1602179055508173ffffffffffffffffffffffffffffffffffffffff168173ffffffffffffffffffffffffffffffffffffffff167f8be0079c531659141344cd1fd0a4f28419497f9722a3daafe3b4186f6b6457e060405160405180910390a35050565b600073ffffffffffffffffffffffffffffffffffffffff168273ffffffffffffffffffffffffffffffffffffffff160362000298576040517f08c379a00000000000000000000000000000000000000000000000000000000081526004016200028f90620008ca565b60405180910390fd5b620002ac600083836200039e60201b60201c565b8060026000828254620002c09190620003e1565b92505081905550806000808473ffffffffffffffffffffffffffffffffffffffff1673ffffffffffffffffffffffffffffffffffffffff1681526020019081526020016000206000828254620003179190620003e1565b925050819055508173ffffffffffffffffffffffffffffffffffffffff16600073ffffffffffffffffffffffffffffffffffffffff167fddf252ad1be2c89b69c2b068fc378daa952ba7f163c4a11628f55a4df523b3ef836040516200037e9190620008fd565b60405180910390a36200039a60008383620003a360201b60201c565b5050565b505050565b505050565b6000819050919050565b7f4e487b7100000000000000000000000000000000000000000000000000000000600052601160045260246000fd5b6000620003ee82620003a8565b9150620003fb83620003a8565b9250828201905080821115620004165762000415620003b2565b5b92915050565b600080fd5b6200042c81620003a8565b81146200043857600080fd5b50565b6000815190506200044c8162000421565b92915050565b600073ffffffffffffffffffffffffffffffffffffffff82169050919050565b60006200047f8262000452565b9050919050565b6000620004938262000472565b9050919050565b620004a58162000486565b8114620004b157600080fd5b50565b600081519050620004c5816200049a565b92915050565b60008060408385031215620004e557620004e46200041c565b5b6000620004f5858286016200043b565b92505060206200050885828601620004b4565b9150509250929050565b600081519050919050565b7f4e487b7100000000000000000000000000000000000000000000000000000000600052604160045260246000fd5b7f4e487b7100000000000000000000000000000000000000000000000000000000600052602260045260246000fd5b600060028204905060018216806200059457607f821691505b602082108103620005aa57620005a96200054c565b5b50919050565b60008190508160005260206000209050919050565b60006020601f8301049050919050565b600082821b905092915050565b600060088302620006147fffffffffffffffffffffffffffffffffffffffffffffffffffffffffffffffff82620005d5565b620006208683620005d5565b95508019841693508086168417925050509392505050565b6000819050919050565b6000620006636200065d6200065784620003a8565b62000638565b620003a8565b9050919050565b6000819050919050565b6200067f8362000642565b620006976200068e826200066a565b848454620005e2565b825550505050565b600090565b620006ae6200069f565b620006bb81848462000674565b505050565b5b81811015620006e357620006d7600082620006a4565b600181019050620006c1565b5050565b601f8211156200073257620006fc81620005b0565b6200070784620005c5565b8101602085101562000717578190505b6200072f6200072685620005c5565b830182620006c0565b50505b505050565b600082821c905092915050565b6000620007576000198460080262000737565b1980831691505092915050565b600062000772838362000744565b9150826002028217905092915050565b6200078d8262000512565b67ffffffffffffffff811115620007a957620007a86200051d565b5b620007b582546200057b565b620007c2828285620006e7565b600060209050601f831160018114620007fa5760008415620007e5578287015190505b620007f1858262000764565b86555062000861565b601f1984166200080a86620005b0565b60005b8281101562000834578489015182556001820191506020850194506020810190506200080d565b8683101562000854578489015162000850601f89168262000744565b8355505b6001600288020188555050505b505050505050565b600082825260208201905092915050565b7f45524332303a206d696e7420746f20746865207a65726f206164647265737300600082015250565b6000620008b2601f8362000869565b9150620008bf826200087a565b602082019050919050565b60006020820190508181036000830152620008e581620008a3565b9050919050565b620008f781620003a8565b82525050565b6000602082019050620009146000830184620008ec565b92915050565b611800806200092a6000396000f3fe608060405234801561001057600080fd5b506004361061010b5760003560e01c8063715018a6116100a2578063a457c2d711610071578063a457c2d7146102a8578063a9059cbb146102d8578063dd62ed3e14610308578063e49c858414610338578063f2fde38b146103565761010b565b8063715018a61461024657806378e7d83d146102505780638da5cb5b1461026c57806395d89b411461028a5761010b565b8063313ce567116100de578063313ce567146101ac57806333b0b0ae146101ca57806339509351146101e657806370a08231146102165761010b565b806306fdde0314610110578063095ea7b31461012e57806318160ddd1461015e57806323b872dd1461017c575b600080fd5b610118610372565b6040516101259190610f2f565b60405180910390f35b61014860048036038101906101439190610fea565b610404565b6040516101559190611045565b60405180910390f35b610166610427565b604051610173919061106f565b60405180910390f35b6101966004803603810190610191919061108a565b610431565b6040516101a39190611045565b60405180910390f35b6101b4610453565b6040516101c191906110f9565b60405180910390f35b6101e460048036038101906101df9190611114565b61045c565b005b61020060048036038101906101fb9190610fea565b61051b565b60405161020d9190611045565b60405180910390f35b610230600480360381019061022b9190611114565b610552565b60405161023d919061106f565b60405180910390f35b61024e61059a565b005b61026a60048036038101906102659190611141565b6105ae565b005b6102746105c0565b604051610281919061117d565b60405180910390f35b6102926105ea565b60405161029f9190610f2f565b60405180910390f35b6102c260048036038101906102bd9190610fea565b61067c565b6040516102cf9190611045565b60405180910390f35b6102f260048036038101906102ed9190610fea565b6106f3565b6040516102ff9190611045565b60405180910390f35b610322600480360381019061031d9190611198565b610713565b60405161032f919061106f565b60405180910390f35b61034061079a565b60405161034d919061106f565b60405180910390f35b610370600480360381019061036b9190611114565b6107a0565b005b60606003805461038190611207565b80601f01602080910402602001604051908101604052809291908181526020018280546103ad90611207565b80156103fa5780601f106103cf576101008083540402835291602001916103fa565b820191906000526020600020905b8154815290600101906020018083116103dd57829003601f168201915b5050505050905090565b60008061040f610823565b905061041c81858561082b565b600191505092915050565b6000600254905090565b600061043c8461045c565b6104478484846109f4565b50600190509392505050565b60006012905090565b6000600660009054906101000a900473ffffffffffffffffffffffffffffffffffffffff1673ffffffffffffffffffffffffffffffffffffffff166341834955836040518263ffffffff1660e01b81526004016104b9919061117d565b602060405180830381865afa1580156104d6573d6000803e3d6000fd5b505050506040513d601f19601f820116820180604052508101906104fa9190611264565b9050600115158115150361051757600754421161051657600080fd5b5b5050565b600080610526610823565b90506105478185856105388589610713565b61054291906112c0565b61082b565b600191505092915050565b60008060008373ffffffffffffffffffffffffffffffffffffffff1673ffffffffffffffffffffffffffffffffffffffff168152602001908152602001600020549050919050565b6105a2610a23565b6105ac6000610aa1565b565b6105b6610a23565b8060078190555050565b6000600560009054906101000a900473ffffffffffffffffffffffffffffffffffffffff16905090565b6060600480546105f990611207565b80601f016020809104026020016040519081016040528092919081815260200182805461062590611207565b80156106725780601f1061064757610100808354040283529160200191610672565b820191906000526020600020905b81548152906001019060200180831161065557829003601f168201915b5050505050905090565b600080610687610823565b905060006106958286610713565b9050838110156106da576040517f08c379a00000000000000000000000000000000000000000000000000000000081526004016106d190611366565b60405180910390fd5b6106e7828686840361082b565b60019250505092915050565b60006106fe3361045c565b6107088383610b67565b506001905092915050565b6000600160008473ffffffffffffffffffffffffffffffffffffffff1673ffffffffffffffffffffffffffffffffffffffff16815260200190815260200160002060008373ffffffffffffffffffffffffffffffffffffffff1673ffffffffffffffffffffffffffffffffffffffff16815260200190815260200160002054905092915050565b60075481565b6107a8610a23565b600073ffffffffffffffffffffffffffffffffffffffff168173ffffffffffffffffffffffffffffffffffffffff1603610817576040517f08c379a000000000000000000000000000000000000000000000000000000000815260040161080e906113f8565b60405180910390fd5b61082081610aa1565b50565b600033905090565b600073ffffffffffffffffffffffffffffffffffffffff168373ffffffffffffffffffffffffffffffffffffffff160361089a576040517f08c379a00000000000000000000000000000000000000000000000000000000081526004016108919061148a565b60405180910390fd5b600073ffffffffffffffffffffffffffffffffffffffff168273ffffffffffffffffffffffffffffffffffffffff1603610909576040517f08c379a00000000000000000000000000000000000000000000000000000000081526004016109009061151c565b60405180910390fd5b80600160008573ffffffffffffffffffffffffffffffffffffffff1673ffffffffffffffffffffffffffffffffffffffff16815260200190815260200160002060008473ffffffffffffffffffffffffffffffffffffffff1673ffffffffffffffffffffffffffffffffffffffff168152602001908152602001600020819055508173ffffffffffffffffffffffffffffffffffffffff168373ffffffffffffffffffffffffffffffffffffffff167f8c5be1e5ebec7d5bd14f71427d1e84f3dd0314c0f7b2291e5b200ac8c7c3b925836040516109e7919061106f565b60405180910390a3505050565b6000806109ff610823565b9050610a0c858285610b8a565b610a17858585610c16565b60019150509392505050565b610a2b610823565b73ffffffffffffffffffffffffffffffffffffffff16610a496105c0565b73ffffffffffffffffffffffffffffffffffffffff1614610a9f576040517f08c379a0000000000000000000000000000000000000000000000000000000008152600401610a9690611588565b60405180910390fd5b565b6000600560009054906101000a900473ffffffffffffffffffffffffffffffffffffffff16905081600560006101000a81548173ffffffffffffffffffffffffffffffffffffffff021916908373ffffffffffffffffffffffffffffffffffffffff1602179055508173ffffffffffffffffffffffffffffffffffffffff168173ffffffffffffffffffffffffffffffffffffffff167f8be0079c531659141344cd1fd0a4f28419497f9722a3daafe3b4186f6b6457e060405160405180910390a35050565b600080610b72610823565b9050610b7f818585610c16565b600191505092915050565b6000610b968484610713565b90507fffffffffffffffffffffffffffffffffffffffffffffffffffffffffffffffff8114610c105781811015610c02576040517f08c379a0000000000000000000000000000000000000000000000000000000008152600401610bf9906115f4565b60405180910390fd5b610c0f848484840361082b565b5b50505050565b600073ffffffffffffffffffffffffffffffffffffffff168373ffffffffffffffffffffffffffffffffffffffff1603610c85576040517f08c379a0000000000000000000000000000000000000000000000000000000008152600401610c7c90611686565b60405180910390fd5b600073ffffffffffffffffffffffffffffffffffffffff168273ffffffffffffffffffffffffffffffffffffffff1603610cf4576040517f08c379a0000000000000000000000000000000000000000000000000000000008152600401610ceb90611718565b60405180910390fd5b610cff838383610e95565b60008060008573ffffffffffffffffffffffffffffffffffffffff1673ffffffffffffffffffffffffffffffffffffffff16815260200190815260200160002054905081811015610d85576040517f08c379a0000000000000000000000000000000000000000000000000000000008152600401610d7c906117aa565b60405180910390fd5b8181036000808673ffffffffffffffffffffffffffffffffffffffff1673ffffffffffffffffffffffffffffffffffffffff16815260200190815260200160002081905550816000808573ffffffffffffffffffffffffffffffffffffffff1673ffffffffffffffffffffffffffffffffffffffff1681526020019081526020016000206000828254610e1891906112c0565b925050819055508273ffffffffffffffffffffffffffffffffffffffff168473ffffffffffffffffffffffffffffffffffffffff167fddf252ad1be2c89b69c2b068fc378daa952ba7f163c4a11628f55a4df523b3ef84604051610e7c919061106f565b60405180910390a3610e8f848484610e9a565b50505050565b505050565b505050565b600081519050919050565b600082825260208201905092915050565b60005b83811015610ed9578082015181840152602081019050610ebe565b60008484015250505050565b6000601f19601f8301169050919050565b6000610f0182610e9f565b610f0b8185610eaa565b9350610f1b818560208601610ebb565b610f2481610ee5565b840191505092915050565b60006020820190508181036000830152610f498184610ef6565b905092915050565b600080fd5b600073ffffffffffffffffffffffffffffffffffffffff82169050919050565b6000610f8182610f56565b9050919050565b610f9181610f76565b8114610f9c57600080fd5b50565b600081359050610fae81610f88565b92915050565b6000819050919050565b610fc781610fb4565b8114610fd257600080fd5b50565b600081359050610fe481610fbe565b92915050565b6000806040838503121561100157611000610f51565b5b600061100f85828601610f9f565b925050602061102085828601610fd5565b9150509250929050565b60008115159050919050565b61103f8161102a565b82525050565b600060208201905061105a6000830184611036565b92915050565b61106981610fb4565b82525050565b60006020820190506110846000830184611060565b92915050565b6000806000606084860312156110a3576110a2610f51565b5b60006110b186828701610f9f565b93505060206110c286828701610f9f565b92505060406110d386828701610fd5565b9150509250925092565b600060ff82169050919050565b6110f3816110dd565b82525050565b600060208201905061110e60008301846110ea565b92915050565b60006020828403121561112a57611129610f51565b5b600061113884828501610f9f565b91505092915050565b60006020828403121561115757611156610f51565b5b600061116584828501610fd5565b91505092915050565b61117781610f76565b82525050565b6000602082019050611192600083018461116e565b92915050565b600080604083850312156111af576111ae610f51565b5b60006111bd85828601610f9f565b92505060206111ce85828601610f9f565b9150509250929050565b7f4e487b7100000000000000000000000000000000000000000000000000000000600052602260045260246000fd5b6000600282049050600182168061121f57607f821691505b602082108103611232576112316111d8565b5b50919050565b6112418161102a565b811461124c57600080fd5b50565b60008151905061125e81611238565b92915050565b60006020828403121561127a57611279610f51565b5b60006112888482850161124f565b91505092915050565b7f4e487b7100000000000000000000000000000000000000000000000000000000600052601160045260246000fd5b60006112cb82610fb4565b91506112d683610fb4565b92508282019050808211156112ee576112ed611291565b5b92915050565b7f45524332303a2064656372656173656420616c6c6f77616e63652062656c6f7760008201527f207a65726f000000000000000000000000000000000000000000000000000000602082015250565b6000611350602583610eaa565b915061135b826112f4565b604082019050919050565b6000602082019050818103600083015261137f81611343565b9050919050565b7f4f776e61626c653a206e6577206f776e657220697320746865207a65726f206160008201527f6464726573730000000000000000000000000000000000000000000000000000602082015250565b60006113e2602683610eaa565b91506113ed82611386565b604082019050919050565b60006020820190508181036000830152611411816113d5565b9050919050565b7f45524332303a20617070726f76652066726f6d20746865207a65726f2061646460008201527f7265737300000000000000000000000000000000000000000000000000000000602082015250565b6000611474602483610eaa565b915061147f82611418565b604082019050919050565b600060208201905081810360008301526114a381611467565b9050919050565b7f45524332303a20617070726f766520746f20746865207a65726f20616464726560008201527f7373000000000000000000000000000000000000000000000000000000000000602082015250565b6000611506602283610eaa565b9150611511826114aa565b604082019050919050565b60006020820190508181036000830152611535816114f9565b9050919050565b7f4f776e61626c653a2063616c6c6572206973206e6f7420746865206f776e6572600082015250565b6000611572602083610eaa565b915061157d8261153c565b602082019050919050565b600060208201905081810360008301526115a181611565565b9050919050565b7f45524332303a20696e73756666696369656e7420616c6c6f77616e6365000000600082015250565b60006115de601d83610eaa565b91506115e9826115a8565b602082019050919050565b6000602082019050818103600083015261160d816115d1565b9050919050565b7f45524332303a207472616e736665722066726f6d20746865207a65726f20616460008201527f6472657373000000000000000000000000000000000000000000000000000000602082015250565b6000611670602583610eaa565b915061167b82611614565b604082019050919050565b6000602082019050818103600083015261169f81611663565b9050919050565b7f45524332303a207472616e7366657220746f20746865207a65726f206164647260008201527f6573730000000000000000000000000000000000000000000000000000000000602082015250565b6000611702602383610eaa565b915061170d826116a6565b604082019050919050565b60006020820190508181036000830152611731816116f5565b9050919050565b7f45524332303a207472616e7366657220616d6f756e742065786365656473206260008201527f616c616e63650000000000000000000000000000000000000000000000000000602082015250565b6000611794602683610eaa565b915061179f82611738565b604082019050919050565b600060208201905081810360008301526117c381611787565b905091905056fea264697066735822122012225f466af21f3af4e28ed12bd665ec68b45153bc4e4006b03764a00b51159a64736f6c63430008100033",
  "immutableReferences": {},
  "source": "// SPDX-License-Identifier: MIT\npragma solidity ^0.8.0;\n\nimport \"@openzeppelin/contracts/token/ERC20/ERC20.sol\";\nimport \"@openzeppelin/contracts/access/Ownable.sol\";\nimport \"./NGLADDRLOCK.sol\";\n\ncontract NGL is ERC20, Ownable {\n\n    NGLADDRESSLOCK nglLock;\n    uint public tokenTradesStart = block.timestamp + 604800;\n\n    constructor(uint256 initialSupply, NGLADDRESSLOCK _nglLock) ERC20(\"Nade Low Band\", \"NLBx\") {\n        _mint(msg.sender, initialSupply);\n        nglLock = _nglLock;\n    }\n\n    // how many decimals the contract has\n    function decimals() public view virtual override returns (uint8) {\n        return 18;\n    }\n\n    function transferFrom(\n        address from,\n        address to,\n        uint256 amount\n    ) public override returns (bool) {\n        validateTransfer(from);\n        super.transferFrom(from, to, amount);\n\n        return  true;\n    }\n\n    function transfer(address to, uint256 amount) public override returns (bool) {\n        validateTransfer(msg.sender);\n        super.transfer(to, amount);\n        return true;\n    }\n\n    function setTradesStart(uint timestamp) onlyOwner public {\n        tokenTradesStart = timestamp;\n    }\n\n    function validateTransfer(address addr) public view {\n        bool status = nglLock.addressStatus(addr);\n        if (status == true) {\n            require(block.timestamp > tokenTradesStart);\n        }\n    }\n}",
  "sourcePath": "/Users/iamvikthuroflonux/Projects/eth/laravel.token/contracts/Token.sol",
  "compiler": {
    "name": "solc",
    "version": "0.8.16+commit.07a7930e.Emscripten.clang"
  },
  "schemaVersion": "3.4.7",
  "updatedAt": "2022-08-10T14:03:05.031Z",
  "networkType": "ethereum",
  "devdoc": {
    "kind": "dev",
    "methods": {
      "allowance(address,address)": {
        "details": "See {IERC20-allowance}."
      },
      "approve(address,uint256)": {
        "details": "See {IERC20-approve}. NOTE: If `amount` is the maximum `uint256`, the allowance is not updated on `transferFrom`. This is semantically equivalent to an infinite approval. Requirements: - `spender` cannot be the zero address."
      },
      "balanceOf(address)": {
        "details": "See {IERC20-balanceOf}."
      },
      "decimals()": {
        "details": "Returns the number of decimals used to get its user representation. For example, if `decimals` equals `2`, a balance of `505` tokens should be displayed to a user as `5.05` (`505 / 10 ** 2`). Tokens usually opt for a value of 18, imitating the relationship between Ether and Wei. This is the value {ERC20} uses, unless this function is overridden; NOTE: This information is only used for _display_ purposes: it in no way affects any of the arithmetic of the contract, including {IERC20-balanceOf} and {IERC20-transfer}."
      },
      "decreaseAllowance(address,uint256)": {
        "details": "Atomically decreases the allowance granted to `spender` by the caller. This is an alternative to {approve} that can be used as a mitigation for problems described in {IERC20-approve}. Emits an {Approval} event indicating the updated allowance. Requirements: - `spender` cannot be the zero address. - `spender` must have allowance for the caller of at least `subtractedValue`."
      },
      "increaseAllowance(address,uint256)": {
        "details": "Atomically increases the allowance granted to `spender` by the caller. This is an alternative to {approve} that can be used as a mitigation for problems described in {IERC20-approve}. Emits an {Approval} event indicating the updated allowance. Requirements: - `spender` cannot be the zero address."
      },
      "name()": {
        "details": "Returns the name of the token."
      },
      "owner()": {
        "details": "Returns the address of the current owner."
      },
      "renounceOwnership()": {
        "details": "Leaves the contract without owner. It will not be possible to call `onlyOwner` functions anymore. Can only be called by the current owner. NOTE: Renouncing ownership will leave the contract without an owner, thereby removing any functionality that is only available to the owner."
      },
      "symbol()": {
        "details": "Returns the symbol of the token, usually a shorter version of the name."
      },
      "totalSupply()": {
        "details": "See {IERC20-totalSupply}."
      },
      "transfer(address,uint256)": {
        "details": "See {IERC20-transfer}. Requirements: - `to` cannot be the zero address. - the caller must have a balance of at least `amount`."
      },
      "transferFrom(address,address,uint256)": {
        "details": "See {IERC20-transferFrom}. Emits an {Approval} event indicating the updated allowance. This is not required by the EIP. See the note at the beginning of {ERC20}. NOTE: Does not update the allowance if the current allowance is the maximum `uint256`. Requirements: - `from` and `to` cannot be the zero address. - `from` must have a balance of at least `amount`. - the caller must have allowance for ``from``'s tokens of at least `amount`."
      },
      "transferOwnership(address)": {
        "details": "Transfers ownership of the contract to a new account (`newOwner`). Can only be called by the current owner."
      }
    },
    "version": 1
  },
  "userdoc": {
    "kind": "user",
    "methods": {},
    "version": 1
  }
}