{
  "contractName": "NGLSALE",
  "abi": [
    {
      "inputs": [
        {
          "internalType": "uint256",
          "name": "rate",
          "type": "uint256"
        },
        {
          "internalType": "address payable",
          "name": "wallet",
          "type": "address"
        },
        {
          "internalType": "contract IERC20",
          "name": "token",
          "type": "address"
        },
        {
          "internalType": "contract NGLADDRESSLOCK",
          "name": "_nglLock",
          "type": "address"
        }
      ],
      "stateMutability": "nonpayable",
      "type": "constructor"
    },
    {
      "anonymous": false,
      "inputs": [
        {
          "indexed": true,
          "internalType": "address",
          "name": "purchaser",
          "type": "address"
        },
        {
          "indexed": true,
          "internalType": "address",
          "name": "beneficiary",
          "type": "address"
        },
        {
          "indexed": false,
          "internalType": "uint256",
          "name": "value",
          "type": "uint256"
        },
        {
          "indexed": false,
          "internalType": "uint256",
          "name": "amount",
          "type": "uint256"
        }
      ],
      "name": "TokensPurchased",
      "type": "event"
    },
    {
      "inputs": [
        {
          "internalType": "address",
          "name": "beneficiary",
          "type": "address"
        }
      ],
      "name": "buyTokens",
      "outputs": [],
      "stateMutability": "payable",
      "type": "function"
    },
    {
      "inputs": [],
      "name": "rate",
      "outputs": [
        {
          "internalType": "uint256",
          "name": "",
          "type": "uint256"
        }
      ],
      "stateMutability": "view",
      "type": "function"
    },
    {
      "inputs": [],
      "name": "token",
      "outputs": [
        {
          "internalType": "contract IERC20",
          "name": "",
          "type": "address"
        }
      ],
      "stateMutability": "view",
      "type": "function"
    },
    {
      "inputs": [],
      "name": "wallet",
      "outputs": [
        {
          "internalType": "address payable",
          "name": "",
          "type": "address"
        }
      ],
      "stateMutability": "view",
      "type": "function"
    },
    {
      "inputs": [],
      "name": "weiRaised",
      "outputs": [
        {
          "internalType": "uint256",
          "name": "",
          "type": "uint256"
        }
      ],
      "stateMutability": "view",
      "type": "function"
    },
    {
      "stateMutability": "payable",
      "type": "receive"
    }
  ],
  "bytecode": "0x60806040523480156200001157600080fd5b506040516200159138038062001591833981810160405281019062000037919062000386565b83838360016000819055506000831162000088576040517f08c379a00000000000000000000000000000000000000000000000000000000081526004016200007f9062000459565b60405180910390fd5b600073ffffffffffffffffffffffffffffffffffffffff168273ffffffffffffffffffffffffffffffffffffffff1603620000fa576040517f08c379a0000000000000000000000000000000000000000000000000000000008152600401620000f190620004f1565b60405180910390fd5b600073ffffffffffffffffffffffffffffffffffffffff168173ffffffffffffffffffffffffffffffffffffffff16036200016c576040517f08c379a0000000000000000000000000000000000000000000000000000000008152600401620001639062000589565b60405180910390fd5b8260038190555081600260006101000a81548173ffffffffffffffffffffffffffffffffffffffff021916908373ffffffffffffffffffffffffffffffffffffffff16021790555080600160006101000a81548173ffffffffffffffffffffffffffffffffffffffff021916908373ffffffffffffffffffffffffffffffffffffffff16021790555050505080600560006101000a81548173ffffffffffffffffffffffffffffffffffffffff021916908373ffffffffffffffffffffffffffffffffffffffff16021790555050505050620005ab565b600080fd5b6000819050919050565b6200025d8162000248565b81146200026957600080fd5b50565b6000815190506200027d8162000252565b92915050565b600073ffffffffffffffffffffffffffffffffffffffff82169050919050565b6000620002b08262000283565b9050919050565b620002c281620002a3565b8114620002ce57600080fd5b50565b600081519050620002e281620002b7565b92915050565b6000620002f58262000283565b9050919050565b60006200030982620002e8565b9050919050565b6200031b81620002fc565b81146200032757600080fd5b50565b6000815190506200033b8162000310565b92915050565b60006200034e82620002e8565b9050919050565b620003608162000341565b81146200036c57600080fd5b50565b600081519050620003808162000355565b92915050565b60008060008060808587031215620003a357620003a262000243565b5b6000620003b3878288016200026c565b9450506020620003c687828801620002d1565b9350506040620003d9878288016200032a565b9250506060620003ec878288016200036f565b91505092959194509250565b600082825260208201905092915050565b7f43726f776473616c653a20726174652069732030000000000000000000000000600082015250565b600062000441601483620003f8565b91506200044e8262000409565b602082019050919050565b60006020820190508181036000830152620004748162000432565b9050919050565b7f43726f776473616c653a2077616c6c657420697320746865207a65726f20616460008201527f6472657373000000000000000000000000000000000000000000000000000000602082015250565b6000620004d9602583620003f8565b9150620004e6826200047b565b604082019050919050565b600060208201905081810360008301526200050c81620004ca565b9050919050565b7f43726f776473616c653a20746f6b656e20697320746865207a65726f2061646460008201527f7265737300000000000000000000000000000000000000000000000000000000602082015250565b600062000571602483620003f8565b91506200057e8262000513565b604082019050919050565b60006020820190508181036000830152620005a48162000562565b9050919050565b610fd680620005bb6000396000f3fe60806040526004361061004e5760003560e01c80632c4e722e1461006a5780634042b66f14610095578063521eb273146100c0578063ec8ac4d8146100eb578063fc0c546a1461010757610065565b366100655761006361005e610132565b61013a565b005b600080fd5b34801561007657600080fd5b5061007f610269565b60405161008c919061086c565b60405180910390f35b3480156100a157600080fd5b506100aa610273565b6040516100b7919061086c565b60405180910390f35b3480156100cc57600080fd5b506100d561027d565b6040516100e291906108c8565b60405180910390f35b61010560048036038101906101009190610926565b61013a565b005b34801561011357600080fd5b5061011c6102a7565b60405161012991906109b2565b60405180910390f35b600033905090565b60026000540361017f576040517f08c379a000000000000000000000000000000000000000000000000000000000815260040161017690610a2a565b60405180910390fd5b6002600081905550600034905061019682826102d1565b60006101a182610387565b90506101b8826004546103a590919063ffffffff16565b6004819055506101c883826103bb565b8273ffffffffffffffffffffffffffffffffffffffff166101e7610132565b73ffffffffffffffffffffffffffffffffffffffff167f6faf93231a456e552dbc9961f58d9713ee4f2e69d15f1975b050ef0911053a7b848460405161022e929190610a4a565b60405180910390a361024083836103c9565b6102486103cd565b6102528383610438565b61025b8361043c565b505050600160008190555050565b6000600354905090565b6000600454905090565b6000600260009054906101000a900473ffffffffffffffffffffffffffffffffffffffff16905090565b6000600160009054906101000a900473ffffffffffffffffffffffffffffffffffffffff16905090565b600073ffffffffffffffffffffffffffffffffffffffff168273ffffffffffffffffffffffffffffffffffffffff1603610340576040517f08c379a000000000000000000000000000000000000000000000000000000000815260040161033790610ae5565b60405180910390fd5b60008103610383576040517f08c379a000000000000000000000000000000000000000000000000000000000815260040161037a90610b51565b60405180910390fd5b5050565b600061039e600354836104de90919063ffffffff16565b9050919050565b600081836103b39190610ba0565b905092915050565b6103c582826104f4565b5050565b5050565b600260009054906101000a900473ffffffffffffffffffffffffffffffffffffffff1673ffffffffffffffffffffffffffffffffffffffff166108fc349081150290604051600060405180830381858888f19350505050158015610435573d6000803e3d6000fd5b50565b5050565b6000600560009054906101000a900473ffffffffffffffffffffffffffffffffffffffff1673ffffffffffffffffffffffffffffffffffffffff166334a90d02336040518263ffffffff1660e01b81526004016104999190610c05565b600060405180830381600087803b1580156104b357600080fd5b505af11580156104c7573d6000803e3d6000fd5b505050506104d482610545565b5060019050919050565b600081836104ec9190610c20565b905092915050565b6105418282600160009054906101000a900473ffffffffffffffffffffffffffffffffffffffff1673ffffffffffffffffffffffffffffffffffffffff166105509092919063ffffffff16565b5050565b600060019050919050565b6105d18363a9059cbb60e01b848460405160240161056f929190610c7a565b604051602081830303815290604052907bffffffffffffffffffffffffffffffffffffffffffffffffffffffff19166020820180517bffffffffffffffffffffffffffffffffffffffffffffffffffffffff83818316178352505050506105d6565b505050565b6000610638826040518060400160405280602081526020017f5361666545524332303a206c6f772d6c6576656c2063616c6c206661696c65648152508573ffffffffffffffffffffffffffffffffffffffff1661069d9092919063ffffffff16565b905060008151111561069857808060200190518101906106589190610cdb565b610697576040517f08c379a000000000000000000000000000000000000000000000000000000000815260040161068e90610d7a565b60405180910390fd5b5b505050565b60606106ac84846000856106b5565b90509392505050565b6060824710156106fa576040517f08c379a00000000000000000000000000000000000000000000000000000000081526004016106f190610e0c565b60405180910390fd5b610703856107c9565b610742576040517f08c379a000000000000000000000000000000000000000000000000000000000815260040161073990610e78565b60405180910390fd5b6000808673ffffffffffffffffffffffffffffffffffffffff16858760405161076b9190610f12565b60006040518083038185875af1925050503d80600081146107a8576040519150601f19603f3d011682016040523d82523d6000602084013e6107ad565b606091505b50915091506107bd8282866107ec565b92505050949350505050565b6000808273ffffffffffffffffffffffffffffffffffffffff163b119050919050565b606083156107fc5782905061084c565b60008351111561080f5782518084602001fd5b816040517f08c379a00000000000000000000000000000000000000000000000000000000081526004016108439190610f7e565b60405180910390fd5b9392505050565b6000819050919050565b61086681610853565b82525050565b6000602082019050610881600083018461085d565b92915050565b600073ffffffffffffffffffffffffffffffffffffffff82169050919050565b60006108b282610887565b9050919050565b6108c2816108a7565b82525050565b60006020820190506108dd60008301846108b9565b92915050565b600080fd5b60006108f382610887565b9050919050565b610903816108e8565b811461090e57600080fd5b50565b600081359050610920816108fa565b92915050565b60006020828403121561093c5761093b6108e3565b5b600061094a84828501610911565b91505092915050565b6000819050919050565b600061097861097361096e84610887565b610953565b610887565b9050919050565b600061098a8261095d565b9050919050565b600061099c8261097f565b9050919050565b6109ac81610991565b82525050565b60006020820190506109c760008301846109a3565b92915050565b600082825260208201905092915050565b7f5265656e7472616e637947756172643a207265656e7472616e742063616c6c00600082015250565b6000610a14601f836109cd565b9150610a1f826109de565b602082019050919050565b60006020820190508181036000830152610a4381610a07565b9050919050565b6000604082019050610a5f600083018561085d565b610a6c602083018461085d565b9392505050565b7f43726f776473616c653a2062656e656669636961727920697320746865207a6560008201527f726f206164647265737300000000000000000000000000000000000000000000602082015250565b6000610acf602a836109cd565b9150610ada82610a73565b604082019050919050565b60006020820190508181036000830152610afe81610ac2565b9050919050565b7f43726f776473616c653a20776569416d6f756e74206973203000000000000000600082015250565b6000610b3b6019836109cd565b9150610b4682610b05565b602082019050919050565b60006020820190508181036000830152610b6a81610b2e565b9050919050565b7f4e487b7100000000000000000000000000000000000000000000000000000000600052601160045260246000fd5b6000610bab82610853565b9150610bb683610853565b9250827fffffffffffffffffffffffffffffffffffffffffffffffffffffffffffffffff03821115610beb57610bea610b71565b5b828201905092915050565b610bff816108e8565b82525050565b6000602082019050610c1a6000830184610bf6565b92915050565b6000610c2b82610853565b9150610c3683610853565b9250817fffffffffffffffffffffffffffffffffffffffffffffffffffffffffffffffff0483118215151615610c6f57610c6e610b71565b5b828202905092915050565b6000604082019050610c8f6000830185610bf6565b610c9c602083018461085d565b9392505050565b60008115159050919050565b610cb881610ca3565b8114610cc357600080fd5b50565b600081519050610cd581610caf565b92915050565b600060208284031215610cf157610cf06108e3565b5b6000610cff84828501610cc6565b91505092915050565b7f5361666545524332303a204552433230206f7065726174696f6e20646964206e60008201527f6f74207375636365656400000000000000000000000000000000000000000000602082015250565b6000610d64602a836109cd565b9150610d6f82610d08565b604082019050919050565b60006020820190508181036000830152610d9381610d57565b9050919050565b7f416464726573733a20696e73756666696369656e742062616c616e636520666f60008201527f722063616c6c0000000000000000000000000000000000000000000000000000602082015250565b6000610df66026836109cd565b9150610e0182610d9a565b604082019050919050565b60006020820190508181036000830152610e2581610de9565b9050919050565b7f416464726573733a2063616c6c20746f206e6f6e2d636f6e7472616374000000600082015250565b6000610e62601d836109cd565b9150610e6d82610e2c565b602082019050919050565b60006020820190508181036000830152610e9181610e55565b9050919050565b600081519050919050565b600081905092915050565b60005b83811015610ecc578082015181840152602081019050610eb1565b83811115610edb576000848401525b50505050565b6000610eec82610e98565b610ef68185610ea3565b9350610f06818560208601610eae565b80840191505092915050565b6000610f1e8284610ee1565b915081905092915050565b600081519050919050565b6000601f19601f8301169050919050565b6000610f5082610f29565b610f5a81856109cd565b9350610f6a818560208601610eae565b610f7381610f34565b840191505092915050565b60006020820190508181036000830152610f988184610f45565b90509291505056fea2646970667358221220cee004dd47dc6295551658be46c3515ac160b207398f5bf49f81e2bc60af420a64736f6c634300080d0033",
  "immutableReferences": {},
  "source": "// SPDX-License-Identifier: MIT\npragma solidity ^0.8.0;\n\nimport \"./Crowdsale.sol\";\nimport \"./NGLADDRLOCK.sol\";\n\ncontract NGLSALE is Crowdsale {\n\n    NGLADDRESSLOCK nglLock;\n\n    constructor(\n        uint256 rate,    /* rate in TKNbits */ \n        address payable wallet, \n        IERC20 token,\n        NGLADDRESSLOCK _nglLock\n        ) \n        Crowdsale(rate, wallet, token)\n    {\n        nglLock = _nglLock;\n    }\n\n    function _updateAddressStatus(address beneficiary) internal override returns(bool) {\n        \n\n        nglLock.lockAddress(msg.sender);\n\n        super._updateAddressStatus(beneficiary);\n\n        return true;\n    }\n}",
  "sourcePath": "/Users/iamvikthuroflonux/Projects/eth/laravel.token/contracts/MyTokenSale.sol",
  "compiler": {
    "name": "solc",
    "version": "0.8.13+commit.abaa5c0e.Emscripten.clang"
  },
  "schemaVersion": "3.4.7",
  "updatedAt": "2022-08-07T00:38:42.712Z",
  "devdoc": {
    "kind": "dev",
    "methods": {
      "buyTokens(address)": {
        "details": "low level token purchase ***DO NOT OVERRIDE*** This function has a non-reentrancy guard, so it shouldn't be called by another `nonReentrant` function.",
        "params": {
          "beneficiary": "Recipient of the token purchase"
        }
      },
      "rate()": {
        "returns": {
          "_0": "the number of token units a buyer gets per wei."
        }
      },
      "token()": {
        "returns": {
          "_0": "the token being sold."
        }
      },
      "wallet()": {
        "returns": {
          "_0": "the address where funds are collected."
        }
      },
      "weiRaised()": {
        "returns": {
          "_0": "the amount of wei raised."
        }
      }
    },
    "version": 1
  },
  "userdoc": {
    "events": {
      "TokensPurchased(address,address,uint256,uint256)": {
        "notice": "Event for token purchase logging"
      }
    },
    "kind": "user",
    "methods": {},
    "version": 1
  }
}